:100000000C945C000C9479000C9479000C947900A9
:100010000C9479000C9479000C9479000C9479007C
:100020000C9479000C9479000C9479000C9479006C
:100030000C9479000C9479000C9479000C9479005C
:100040000C9445010C9479000C9479000C9479007F
:100050000C9479000C9479000C9479000C9479003C
:100060000C9479000C947900000000080002010053
:100070000003040700000000000000000000000072
:10008000250028002B0000000000240027002A0083
:10009000040404040404040402020202020203032E
:1000A0000303030301020408102040800102040836
:1000B000102001020408102011241FBECFEFD8E049
:1000C000DEBFCDBF11E0A0E0B1E0E4E7F4E002C0A4
:1000D00005900D92A230B107D9F721E0A2E0B1E07E
:1000E00001C01D92AB30B207E1F70E948F010C9462
:1000F00038020C94000090E0FC01EC55FF4F249175
:10010000FC01E057FF4F8491882399F090E0880F1D
:10011000991FFC01EA57FF4FA591B491FC01E458E7
:10012000FF4F859194918FB7F894EC91E22BEC936B
:100130008FBF089590E0FC01E859FF4F3491FC0116
:10014000EC55FF4F2491FC01E057FF4FE491EE2363
:1001500009F43BC0332339F1333091F038F43130B6
:10016000A9F0323001F584B58F7D12C0373091F09F
:100170003830A1F03430B9F4809180008F7D03C015
:10018000809180008F77809380000DC084B58F7739
:1001900084BD09C08091B0008F7703C08091B0000A
:1001A0008F7D8093B000F0E0EE0FFF1FE458FF4F0B
:1001B000A591B4918FB7F894EC91611103C020958B
:1001C0002E2301C02E2B2C938FBF08953FB7F89498
:1001D0008091070190910801A0910901B0910A0155
:1001E00026B5A89B05C02F3F19F00196A11DB11D92
:1001F0003FBFBA2FA92F982F8827820F911DA11DCD
:10020000B11DBC01CD0142E0660F771F881F991F09
:100210004A95D1F708958F929F92AF92BF92CF9255
:10022000DF92EF92FF926B017C010E94E6004B018E
:100230005C01C114D104E104F104F1F00E94E60074
:10024000DC01CB0188199909AA09BB09883E9340B2
:10025000A105B10570F321E0C21AD108E108F10847
:1002600088EE880E83E0981EA11CB11CC114D10435
:10027000E104F10419F7DDCFFF90EF90DF90CF900C
:10028000BF90AF909F908F9008951F920F920FB6DE
:100290000F9211242F933F938F939F93AF93BF930C
:1002A0008091030190910401A0910501B091060194
:1002B0003091020123E0230F2D3720F40196A11D78
:1002C000B11D05C026E8230F0296A11DB11D209384
:1002D00002018093030190930401A0930501B09360
:1002E00006018091070190910801A0910901B09148
:1002F0000A010196A11DB11D809307019093080189
:10030000A0930901B0930A01BF91AF919F918F9182
:100310003F912F910F900FBE0F901F9018957894DA
:1003200084B5826084BD84B5816084BD85B58260FA
:1003300085BD85B5816085BD80916E0081608093AB
:100340006E00109281008091810082608093810014
:100350008091810081608093810080918000816024
:10036000809380008091B10084608093B10080917F
:10037000B00081608093B00080917A0084608093A7
:100380007A0080917A00826080937A0080917A006E
:10039000816080937A0080917A00806880937A00EF
:1003A0001092C10088E00E947B0087E00E947B00E1
:1003B00000E010E0C0910001D091010161E0C5367C
:1003C000D105D4F088E00E949A0068EC70E080E0EB
:1003D00090E00E940B0160E088E00E949A0068ECC7
:1003E00070E080E090E00E940B01C456D109D093E8
:1003F0000101C0930001DECF87E00E949A0068E807
:1004000073E180E090E00E940B01C0910001D09167
:10041000010161E0C83E83E0D807D4F487E00E9480
:100420009A0064E670E080E090E00E940B0160E0DA
:1004300087E00E949A0064E670E080E090E00E940D
:100440000B01CC59DF4FD0930101C0930001DDCFE8
:1004500088E00E949A0068E873E180E090E00E94E2
:100460000B010115110509F4A5CF0E940000A2CFD0
:04047000F894FFCF2E
:02047400E8039B
:00000001FF
